{
  "contractName": "Complaints",
  "abi": [
    {
      "inputs": [],
      "stateMutability": "nonpayable",
      "type": "constructor"
    },
    {
      "inputs": [],
      "name": "admin",
      "outputs": [
        {
          "internalType": "address",
          "name": "",
          "type": "address"
        }
      ],
      "stateMutability": "view",
      "type": "function",
      "constant": true
    },
    {
      "inputs": [
        {
          "internalType": "string",
          "name": "_complaintText",
          "type": "string"
        }
      ],
      "name": "addComplaint",
      "outputs": [],
      "stateMutability": "nonpayable",
      "type": "function"
    },
    {
      "inputs": [
        {
          "internalType": "uint256",
          "name": "_complaintIndex",
          "type": "uint256"
        },
        {
          "internalType": "string",
          "name": "_newComplaintText",
          "type": "string"
        }
      ],
      "name": "updateComplaint",
      "outputs": [
        {
          "internalType": "bool",
          "name": "",
          "type": "bool"
        }
      ],
      "stateMutability": "nonpayable",
      "type": "function"
    },
    {
      "inputs": [
        {
          "internalType": "uint256",
          "name": "_complaintIndex",
          "type": "uint256"
        }
      ],
      "name": "deleteComplaint",
      "outputs": [
        {
          "internalType": "bool",
          "name": "",
          "type": "bool"
        }
      ],
      "stateMutability": "nonpayable",
      "type": "function"
    },
    {
      "inputs": [],
      "name": "getMyComplaints",
      "outputs": [
        {
          "components": [
            {
              "internalType": "string",
              "name": "text",
              "type": "string"
            },
            {
              "internalType": "address",
              "name": "creator",
              "type": "address"
            },
            {
              "internalType": "uint256",
              "name": "creationTimestamp",
              "type": "uint256"
            },
            {
              "internalType": "uint256",
              "name": "blockNumber",
              "type": "uint256"
            }
          ],
          "internalType": "struct Complaints.Complaint[]",
          "name": "",
          "type": "tuple[]"
        }
      ],
      "stateMutability": "view",
      "type": "function",
      "constant": true
    },
    {
      "inputs": [],
      "name": "getAllComplaints",
      "outputs": [
        {
          "components": [
            {
              "internalType": "string",
              "name": "text",
              "type": "string"
            },
            {
              "internalType": "address",
              "name": "creator",
              "type": "address"
            },
            {
              "internalType": "uint256",
              "name": "creationTimestamp",
              "type": "uint256"
            },
            {
              "internalType": "uint256",
              "name": "blockNumber",
              "type": "uint256"
            }
          ],
          "internalType": "struct Complaints.Complaint[]",
          "name": "",
          "type": "tuple[]"
        }
      ],
      "stateMutability": "view",
      "type": "function",
      "constant": true
    },
    {
      "inputs": [
        {
          "internalType": "address",
          "name": "_newAdmin",
          "type": "address"
        }
      ],
      "name": "transferAdmin",
      "outputs": [],
      "stateMutability": "nonpayable",
      "type": "function"
    }
  ],
  "bytecode": "0x608060405234801561001057600080fd5b5033600260006101000a81548173ffffffffffffffffffffffffffffffffffffffff021916908373ffffffffffffffffffffffffffffffffffffffff16021790555061152c806100616000396000f3fe608060405234801561001057600080fd5b506004361061007d5760003560e01c80638cd88dcf1161005b5780638cd88dcf146100da578063dd6817251461010a578063f2ea70a414610126578063f851a440146101565761007d565b80630dac95391461008257806375829def146100a0578063767d0067146100bc575b600080fd5b61008a610174565b6040516100979190611013565b60405180910390f35b6100ba60048036038101906100b59190611075565b6102cf565b005b6100c4610313565b6040516100d19190611013565b60405180910390f35b6100f460048036038101906100ef9190611203565b6104aa565b604051610101919061127a565b60405180910390f35b610124600480360381019061011f9190611295565b61057f565b005b610140600480360381019061013b91906112de565b610746565b60405161014d919061127a565b60405180910390f35b61015e610c65565b60405161016b919061131a565b60405180910390f35b60606001805480602002602001604051908101604052809291908181526020016000905b828210156102c657838290600052602060002090600402016040518060800160405290816000820180546101cb90611364565b80601f01602080910402602001604051908101604052809291908181526020018280546101f790611364565b80156102445780601f1061021957610100808354040283529160200191610244565b820191906000526020600020905b81548152906001019060200180831161022757829003601f168201915b505050505081526020016001820160009054906101000a900473ffffffffffffffffffffffffffffffffffffffff1673ffffffffffffffffffffffffffffffffffffffff1673ffffffffffffffffffffffffffffffffffffffff1681526020016002820154815260200160038201548152505081526020019060010190610198565b50505050905090565b80600260006101000a81548173ffffffffffffffffffffffffffffffffffffffff021916908373ffffffffffffffffffffffffffffffffffffffff16021790555050565b60606000803373ffffffffffffffffffffffffffffffffffffffff1673ffffffffffffffffffffffffffffffffffffffff168152602001908152602001600020805480602002602001604051908101604052809291908181526020016000905b828210156104a157838290600052602060002090600402016040518060800160405290816000820180546103a690611364565b80601f01602080910402602001604051908101604052809291908181526020018280546103d290611364565b801561041f5780601f106103f45761010080835404028352916020019161041f565b820191906000526020600020905b81548152906001019060200180831161040257829003601f168201915b505050505081526020016001820160009054906101000a900473ffffffffffffffffffffffffffffffffffffffff1673ffffffffffffffffffffffffffffffffffffffff1673ffffffffffffffffffffffffffffffffffffffff1681526020016002820154815260200160038201548152505081526020019060010190610373565b50505050905090565b60008060003373ffffffffffffffffffffffffffffffffffffffff1673ffffffffffffffffffffffffffffffffffffffff1681526020019081526020016000208054905083101561057457816000803373ffffffffffffffffffffffffffffffffffffffff1673ffffffffffffffffffffffffffffffffffffffff168152602001908152602001600020848154811061054657610545611396565b5b9060005260206000209060040201600001908051906020019061056a929190610c8b565b5060019050610579565b600090505b92915050565b600060405180608001604052808381526020013373ffffffffffffffffffffffffffffffffffffffff1681526020014281526020014381525090506000803373ffffffffffffffffffffffffffffffffffffffff1673ffffffffffffffffffffffffffffffffffffffff168152602001908152602001600020819080600181540180825580915050600190039060005260206000209060040201600090919091909150600082015181600001908051906020019061063e929190610c8b565b5060208201518160010160006101000a81548173ffffffffffffffffffffffffffffffffffffffff021916908373ffffffffffffffffffffffffffffffffffffffff16021790555060408201518160020155606082015181600301555050600181908060018154018082558091505060019003906000526020600020906004020160009091909190915060008201518160000190805190602001906106e4929190610c8b565b5060208201518160010160006101000a81548173ffffffffffffffffffffffffffffffffffffffff021916908373ffffffffffffffffffffffffffffffffffffffff160217905550604082015181600201556060820151816003015550505050565b60008060003373ffffffffffffffffffffffffffffffffffffffff1673ffffffffffffffffffffffffffffffffffffffff16815260200190815260200160002080549050821015610c5b5760008290505b60016000803373ffffffffffffffffffffffffffffffffffffffff1673ffffffffffffffffffffffffffffffffffffffff168152602001908152602001600020805490506107e591906113f4565b811015610965576000803373ffffffffffffffffffffffffffffffffffffffff1673ffffffffffffffffffffffffffffffffffffffff1681526020019081526020016000206001826108379190611428565b8154811061084857610847611396565b5b90600052602060002090600402016000803373ffffffffffffffffffffffffffffffffffffffff1673ffffffffffffffffffffffffffffffffffffffff16815260200190815260200160002082815481106108a6576108a5611396565b5b906000526020600020906004020160008201816000019080546108c890611364565b6108d3929190610d11565b506001820160009054906101000a900473ffffffffffffffffffffffffffffffffffffffff168160010160006101000a81548173ffffffffffffffffffffffffffffffffffffffff021916908373ffffffffffffffffffffffffffffffffffffffff1602179055506002820154816002015560038201548160030155905050808061095d9061147e565b915050610797565b506000803373ffffffffffffffffffffffffffffffffffffffff1673ffffffffffffffffffffffffffffffffffffffff1681526020019081526020016000208054806109b4576109b36114c7565b5b6001900381819060005260206000209060040201600080820160006109d99190610d9e565b6001820160006101000a81549073ffffffffffffffffffffffffffffffffffffffff0219169055600282016000905560038201600090555050905560005b600180549050811015610c51573373ffffffffffffffffffffffffffffffffffffffff1660018281548110610a4f57610a4e611396565b5b906000526020600020906004020160010160009054906101000a900473ffffffffffffffffffffffffffffffffffffffff1673ffffffffffffffffffffffffffffffffffffffff16148015610aa357508281145b15610c3e5760008190505b60018080549050610abf91906113f4565b811015610bc65760018082610ad49190611428565b81548110610ae557610ae4611396565b5b906000526020600020906004020160018281548110610b0757610b06611396565b5b90600052602060002090600402016000820181600001908054610b2990611364565b610b34929190610d11565b506001820160009054906101000a900473ffffffffffffffffffffffffffffffffffffffff168160010160006101000a81548173ffffffffffffffffffffffffffffffffffffffff021916908373ffffffffffffffffffffffffffffffffffffffff16021790555060028201548160020155600382015481600301559050508080610bbe9061147e565b915050610aae565b506001805480610bd957610bd86114c7565b5b600190038181906000526020600020906004020160008082016000610bfe9190610d9e565b6001820160006101000a81549073ffffffffffffffffffffffffffffffffffffffff02191690556002820160009055600382016000905550509055610c51565b8080610c499061147e565b915050610a17565b5060019050610c60565b600090505b919050565b600260009054906101000a900473ffffffffffffffffffffffffffffffffffffffff1681565b828054610c9790611364565b90600052602060002090601f016020900481019282610cb95760008555610d00565b82601f10610cd257805160ff1916838001178555610d00565b82800160010185558215610d00579182015b82811115610cff578251825591602001919060010190610ce4565b5b509050610d0d9190610dde565b5090565b828054610d1d90611364565b90600052602060002090601f016020900481019282610d3f5760008555610d8d565b82601f10610d505780548555610d8d565b82800160010185558215610d8d57600052602060002091601f016020900482015b82811115610d8c578254825591600101919060010190610d71565b5b509050610d9a9190610dde565b5090565b508054610daa90611364565b6000825580601f10610dbc5750610ddb565b601f016020900490600052602060002090810190610dda9190610dde565b5b50565b5b80821115610df7576000816000905550600101610ddf565b5090565b600081519050919050565b600082825260208201905092915050565b6000819050602082019050919050565b600081519050919050565b600082825260208201905092915050565b60005b83811015610e61578082015181840152602081019050610e46565b83811115610e70576000848401525b50505050565b6000601f19601f8301169050919050565b6000610e9282610e27565b610e9c8185610e32565b9350610eac818560208601610e43565b610eb581610e76565b840191505092915050565b600073ffffffffffffffffffffffffffffffffffffffff82169050919050565b6000610eeb82610ec0565b9050919050565b610efb81610ee0565b82525050565b6000819050919050565b610f1481610f01565b82525050565b60006080830160008301518482036000860152610f378282610e87565b9150506020830151610f4c6020860182610ef2565b506040830151610f5f6040860182610f0b565b506060830151610f726060860182610f0b565b508091505092915050565b6000610f898383610f1a565b905092915050565b6000602082019050919050565b6000610fa982610dfb565b610fb38185610e06565b935083602082028501610fc585610e17565b8060005b858110156110015784840389528151610fe28582610f7d565b9450610fed83610f91565b925060208a01995050600181019050610fc9565b50829750879550505050505092915050565b6000602082019050818103600083015261102d8184610f9e565b905092915050565b6000604051905090565b600080fd5b600080fd5b61105281610ee0565b811461105d57600080fd5b50565b60008135905061106f81611049565b92915050565b60006020828403121561108b5761108a61103f565b5b600061109984828501611060565b91505092915050565b6110ab81610f01565b81146110b657600080fd5b50565b6000813590506110c8816110a2565b92915050565b600080fd5b600080fd5b7f4e487b7100000000000000000000000000000000000000000000000000000000600052604160045260246000fd5b61111082610e76565b810181811067ffffffffffffffff8211171561112f5761112e6110d8565b5b80604052505050565b6000611142611035565b905061114e8282611107565b919050565b600067ffffffffffffffff82111561116e5761116d6110d8565b5b61117782610e76565b9050602081019050919050565b82818337600083830152505050565b60006111a66111a184611153565b611138565b9050828152602081018484840111156111c2576111c16110d3565b5b6111cd848285611184565b509392505050565b600082601f8301126111ea576111e96110ce565b5b81356111fa848260208601611193565b91505092915050565b6000806040838503121561121a5761121961103f565b5b6000611228858286016110b9565b925050602083013567ffffffffffffffff81111561124957611248611044565b5b611255858286016111d5565b9150509250929050565b60008115159050919050565b6112748161125f565b82525050565b600060208201905061128f600083018461126b565b92915050565b6000602082840312156112ab576112aa61103f565b5b600082013567ffffffffffffffff8111156112c9576112c8611044565b5b6112d5848285016111d5565b91505092915050565b6000602082840312156112f4576112f361103f565b5b6000611302848285016110b9565b91505092915050565b61131481610ee0565b82525050565b600060208201905061132f600083018461130b565b92915050565b7f4e487b7100000000000000000000000000000000000000000000000000000000600052602260045260246000fd5b6000600282049050600182168061137c57607f821691505b602082108114156113905761138f611335565b5b50919050565b7f4e487b7100000000000000000000000000000000000000000000000000000000600052603260045260246000fd5b7f4e487b7100000000000000000000000000000000000000000000000000000000600052601160045260246000fd5b60006113ff82610f01565b915061140a83610f01565b92508282101561141d5761141c6113c5565b5b828203905092915050565b600061143382610f01565b915061143e83610f01565b9250827fffffffffffffffffffffffffffffffffffffffffffffffffffffffffffffffff03821115611473576114726113c5565b5b828201905092915050565b600061148982610f01565b91507fffffffffffffffffffffffffffffffffffffffffffffffffffffffffffffffff8214156114bc576114bb6113c5565b5b600182019050919050565b7f4e487b7100000000000000000000000000000000000000000000000000000000600052603160045260246000fdfea26469706673582212202afa971c4f6bc72ee3e4959dd9eebf570d08bfb81adf484265b9ddd4484f4cb564736f6c634300080b0033",
  "immutableReferences": {},
  "source": "pragma solidity >=0.4.22 <0.9.0;\n\ncontract Complaints {\n    struct Complaint {\n        string text;\n        address creator;\n        uint256 creationTimestamp; \n        uint256 blockNumber;\n    }\n\n    mapping(address => Complaint[]) private userComplaints;\n    Complaint[] private allComplaints;\n    address public admin;\n\n    constructor() {\n        admin = msg.sender;\n    }\n\n    function addComplaint(string memory _complaintText) public {\n        Complaint memory newComplaint = Complaint(_complaintText, msg.sender, block.timestamp, block.number); \n        userComplaints[msg.sender].push(newComplaint);\n        allComplaints.push(newComplaint);\n    }\n\n    function updateComplaint(uint _complaintIndex, string memory _newComplaintText) public returns (bool) {\n        if (_complaintIndex < userComplaints[msg.sender].length) {\n            userComplaints[msg.sender][_complaintIndex].text = _newComplaintText;\n            return true;\n        }\n        return false;\n    }\n\n    function deleteComplaint(uint _complaintIndex) public returns (bool) {\n        if (_complaintIndex < userComplaints[msg.sender].length) {\n            // Eliminar queja del usuario\n            for (uint i = _complaintIndex; i < userComplaints[msg.sender].length - 1; i++) {\n                userComplaints[msg.sender][i] = userComplaints[msg.sender][i + 1];\n            }\n            userComplaints[msg.sender].pop();\n            \n            // Eliminar queja de todas las quejas\n            for (uint j = 0; j < allComplaints.length; j++) {\n                if (allComplaints[j].creator == msg.sender && j == _complaintIndex) {\n                    for (uint k = j; k < allComplaints.length - 1; k++) {\n                        allComplaints[k] = allComplaints[k + 1];\n                    }\n                    allComplaints.pop();\n                    break;\n                }\n            }\n            return true;\n        }\n        return false;\n    }\n\n    function getMyComplaints() public view returns (Complaint[] memory) {\n        return userComplaints[msg.sender];\n    }\n\n    function getAllComplaints() public view returns (Complaint[] memory) {\n        return allComplaints;\n    }\n\n    function transferAdmin(address _newAdmin) public {\n        admin = _newAdmin;\n    }\n}\n",
  "sourcePath": "/Users/mac/Documents/facu 2023/seguridad 2/encuestas/contracts/Complaints.sol",
  "compiler": {
    "name": "solc",
    "version": "0.8.11+commit.d7f03943.Emscripten.clang"
  },
  "schemaVersion": "3.4.16",
  "updatedAt": "2024-02-29T18:40:02.801Z",
  "networkType": "ethereum",
  "devdoc": {
    "kind": "dev",
    "methods": {},
    "version": 1
  },
  "userdoc": {
    "kind": "user",
    "methods": {},
    "version": 1
  }
}