{
  "contractName": "Plum",
  "abi": [
    {
      "anonymous": false,
      "inputs": [
        {
          "indexed": true,
          "internalType": "address",
          "name": "_owner",
          "type": "address"
        },
        {
          "indexed": true,
          "internalType": "address",
          "name": "_approved",
          "type": "address"
        },
        {
          "indexed": true,
          "internalType": "uint256",
          "name": "_tokenId",
          "type": "uint256"
        }
      ],
      "name": "Approval",
      "type": "event"
    },
    {
      "anonymous": false,
      "inputs": [
        {
          "indexed": true,
          "internalType": "address",
          "name": "_owner",
          "type": "address"
        },
        {
          "indexed": true,
          "internalType": "address",
          "name": "_operator",
          "type": "address"
        },
        {
          "indexed": false,
          "internalType": "bool",
          "name": "_approved",
          "type": "bool"
        }
      ],
      "name": "ApprovalForAll",
      "type": "event"
    },
    {
      "anonymous": false,
      "inputs": [
        {
          "indexed": true,
          "internalType": "address",
          "name": "_from",
          "type": "address"
        },
        {
          "indexed": true,
          "internalType": "address",
          "name": "_to",
          "type": "address"
        },
        {
          "indexed": true,
          "internalType": "uint256",
          "name": "_tokenId",
          "type": "uint256"
        }
      ],
      "name": "Transfer",
      "type": "event"
    },
    {
      "inputs": [
        {
          "internalType": "bytes4",
          "name": "interfaceId",
          "type": "bytes4"
        }
      ],
      "name": "supportsInterface",
      "outputs": [
        {
          "internalType": "bool",
          "name": "",
          "type": "bool"
        }
      ],
      "stateMutability": "view",
      "type": "function"
    },
    {
      "inputs": [
        {
          "internalType": "address",
          "name": "owner",
          "type": "address"
        }
      ],
      "name": "getMyPlums",
      "outputs": [
        {
          "internalType": "uint256",
          "name": "",
          "type": "uint256"
        }
      ],
      "stateMutability": "view",
      "type": "function"
    },
    {
      "inputs": [
        {
          "internalType": "address",
          "name": "owner",
          "type": "address"
        }
      ],
      "name": "getAll",
      "outputs": [
        {
          "internalType": "uint256",
          "name": "tokens",
          "type": "uint256"
        }
      ],
      "stateMutability": "view",
      "type": "function"
    },
    {
      "inputs": [
        {
          "internalType": "address",
          "name": "owner",
          "type": "address"
        }
      ],
      "name": "balanceOf",
      "outputs": [
        {
          "internalType": "uint256",
          "name": "",
          "type": "uint256"
        }
      ],
      "stateMutability": "view",
      "type": "function"
    },
    {
      "inputs": [
        {
          "internalType": "uint256",
          "name": "tokenId",
          "type": "uint256"
        }
      ],
      "name": "ownerOf",
      "outputs": [
        {
          "internalType": "address",
          "name": "",
          "type": "address"
        }
      ],
      "stateMutability": "view",
      "type": "function"
    },
    {
      "inputs": [
        {
          "internalType": "address",
          "name": "to",
          "type": "address"
        },
        {
          "internalType": "uint256",
          "name": "tokenId",
          "type": "uint256"
        }
      ],
      "name": "approve",
      "outputs": [],
      "stateMutability": "nonpayable",
      "type": "function"
    },
    {
      "inputs": [
        {
          "internalType": "uint256",
          "name": "tokenId",
          "type": "uint256"
        }
      ],
      "name": "getApproved",
      "outputs": [
        {
          "internalType": "address",
          "name": "",
          "type": "address"
        }
      ],
      "stateMutability": "view",
      "type": "function"
    },
    {
      "inputs": [
        {
          "internalType": "address",
          "name": "operator",
          "type": "address"
        },
        {
          "internalType": "bool",
          "name": "approved",
          "type": "bool"
        }
      ],
      "name": "setApprovalForAll",
      "outputs": [],
      "stateMutability": "nonpayable",
      "type": "function"
    },
    {
      "inputs": [
        {
          "internalType": "address",
          "name": "owner",
          "type": "address"
        },
        {
          "internalType": "address",
          "name": "operator",
          "type": "address"
        }
      ],
      "name": "isApprovedForAll",
      "outputs": [
        {
          "internalType": "bool",
          "name": "",
          "type": "bool"
        }
      ],
      "stateMutability": "view",
      "type": "function"
    },
    {
      "inputs": [
        {
          "internalType": "address",
          "name": "from",
          "type": "address"
        },
        {
          "internalType": "address",
          "name": "to",
          "type": "address"
        },
        {
          "internalType": "uint256",
          "name": "tokenId",
          "type": "uint256"
        }
      ],
      "name": "safeTransferFrom",
      "outputs": [],
      "stateMutability": "nonpayable",
      "type": "function"
    },
    {
      "inputs": [
        {
          "internalType": "address",
          "name": "from",
          "type": "address"
        },
        {
          "internalType": "address",
          "name": "to",
          "type": "address"
        },
        {
          "internalType": "uint256",
          "name": "tokenId",
          "type": "uint256"
        },
        {
          "internalType": "bytes",
          "name": "_data",
          "type": "bytes"
        }
      ],
      "name": "safeTransferFrom",
      "outputs": [],
      "stateMutability": "nonpayable",
      "type": "function"
    },
    {
      "inputs": [
        {
          "internalType": "address",
          "name": "from",
          "type": "address"
        },
        {
          "internalType": "address",
          "name": "to",
          "type": "address"
        },
        {
          "internalType": "uint256",
          "name": "tokenId",
          "type": "uint256"
        }
      ],
      "name": "transferFrom",
      "outputs": [],
      "stateMutability": "nonpayable",
      "type": "function"
    },
    {
      "inputs": [
        {
          "internalType": "address",
          "name": "from",
          "type": "address"
        },
        {
          "internalType": "address",
          "name": "to",
          "type": "address"
        },
        {
          "internalType": "uint256",
          "name": "tokenId",
          "type": "uint256"
        },
        {
          "internalType": "bytes",
          "name": "data",
          "type": "bytes"
        }
      ],
      "name": "transferFrom",
      "outputs": [],
      "stateMutability": "nonpayable",
      "type": "function"
    },
    {
      "inputs": [
        {
          "internalType": "address",
          "name": "to",
          "type": "address"
        },
        {
          "internalType": "uint256",
          "name": "num",
          "type": "uint256"
        }
      ],
      "name": "safeMint",
      "outputs": [],
      "stateMutability": "nonpayable",
      "type": "function"
    },
    {
      "inputs": [
        {
          "internalType": "address",
          "name": "to",
          "type": "address"
        },
        {
          "internalType": "bytes",
          "name": "_data",
          "type": "bytes"
        }
      ],
      "name": "_safeMint",
      "outputs": [],
      "stateMutability": "nonpayable",
      "type": "function"
    },
    {
      "inputs": [
        {
          "internalType": "address",
          "name": "to",
          "type": "address"
        },
        {
          "internalType": "uint256",
          "name": "tokenId",
          "type": "uint256"
        }
      ],
      "name": "_mint",
      "outputs": [],
      "stateMutability": "nonpayable",
      "type": "function"
    }
  ],
  "bytecode": "0x608060405234801561001057600080fd5b50611b56806100206000396000f3fe608060405234801561001057600080fd5b50600436106101005760003560e01c806370a0823111610097578063b88d4fde11610066578063b88d4fde146102b9578063d79573e0146102d5578063e985e9c5146102f1578063eb0773421461032157610100565b806370a0823114610235578063a144819414610265578063a22cb46514610281578063ab67aa581461029d57610100565b806342842e0e116100d357806342842e0e1461019d5780634e6ec247146101b95780636352211e146101d55780636a2b99191461020557610100565b806301ffc9a714610105578063081812fc14610135578063095ea7b31461016557806323b872dd14610181575b600080fd5b61011f600480360381019061011a9190610fde565b610351565b60405161012c9190611026565b60405180910390f35b61014f600480360381019061014a9190611077565b6103cb565b60405161015c91906110e5565b60405180910390f35b61017f600480360381019061017a919061112c565b610450565b005b61019b6004803603810190610196919061116c565b61055a565b005b6101b760048036038101906101b2919061116c565b61055f565b005b6101d360048036038101906101ce919061112c565b610564565b005b6101ef60048036038101906101ea9190611077565b610732565b6040516101fc91906110e5565b60405180910390f35b61021f600480360381019061021a91906111bf565b6107e4565b60405161022c91906111fb565b60405180910390f35b61024f600480360381019061024a91906111bf565b61089c565b60405161025c91906111fb565b60405180910390f35b61027f600480360381019061027a919061112c565b610954565b005b61029b60048036038101906102969190611242565b610990565b005b6102b760048036038101906102b291906113c8565b610afc565b005b6102d360048036038101906102ce91906113c8565b610b02565b005b6102ef60048036038101906102ea919061144b565b610b08565b005b61030b600480360381019061030691906114a7565b610b7d565b6040516103189190611026565b60405180910390f35b61033b600480360381019061033691906111bf565b610c11565b60405161034891906111fb565b60405180910390f35b60007f9346bd4b000000000000000000000000000000000000000000000000000000007bffffffffffffffffffffffffffffffffffffffffffffffffffffffff1916827bffffffffffffffffffffffffffffffffffffffffffffffffffffffff191614806103c457506103c382610c5a565b5b9050919050565b60006103d682610cc4565b610415576040517f08c379a000000000000000000000000000000000000000000000000000000000815260040161040c9061156a565b60405180910390fd5b6003600083815260200190815260200160002060009054906101000a900473ffffffffffffffffffffffffffffffffffffffff169050919050565b600061045b82610732565b90508073ffffffffffffffffffffffffffffffffffffffff168373ffffffffffffffffffffffffffffffffffffffff1614156104cc576040517f08c379a00000000000000000000000000000000000000000000000000000000081526004016104c3906115fc565b60405180910390fd5b8073ffffffffffffffffffffffffffffffffffffffff163373ffffffffffffffffffffffffffffffffffffffff16148061050c575061050b8133610b7d565b5b61054b576040517f08c379a0000000000000000000000000000000000000000000000000000000008152600401610542906116b4565b60405180910390fd5b6105558383610d30565b505050565b505050565b505050565b600073ffffffffffffffffffffffffffffffffffffffff168273ffffffffffffffffffffffffffffffffffffffff1614156105d4576040517f08c379a00000000000000000000000000000000000000000000000000000000081526004016105cb90611720565b60405180910390fd5b6105dd81610cc4565b1561061d576040517f08c379a00000000000000000000000000000000000000000000000000000000081526004016106149061178c565b60405180910390fd5b61062960008383610de9565b6001600260008473ffffffffffffffffffffffffffffffffffffffff1673ffffffffffffffffffffffffffffffffffffffff168152602001908152602001600020600082825461067991906117db565b92505081905550816001600083815260200190815260200160002060006101000a81548173ffffffffffffffffffffffffffffffffffffffff021916908373ffffffffffffffffffffffffffffffffffffffff160217905550808273ffffffffffffffffffffffffffffffffffffffff16600073ffffffffffffffffffffffffffffffffffffffff167fddf252ad1be2c89b69c2b068fc378daa952ba7f163c4a11628f55a4df523b3ef60405160405180910390a45050565b6000806001600084815260200190815260200160002060009054906101000a900473ffffffffffffffffffffffffffffffffffffffff169050600073ffffffffffffffffffffffffffffffffffffffff168173ffffffffffffffffffffffffffffffffffffffff1614156107db576040517f08c379a00000000000000000000000000000000000000000000000000000000081526004016107d29061187d565b60405180910390fd5b80915050919050565b60008073ffffffffffffffffffffffffffffffffffffffff168273ffffffffffffffffffffffffffffffffffffffff161415610855576040517f08c379a000000000000000000000000000000000000000000000000000000000815260040161084c9061187d565b60405180910390fd5b600260008373ffffffffffffffffffffffffffffffffffffffff1673ffffffffffffffffffffffffffffffffffffffff168152602001908152602001600020549050919050565b60008073ffffffffffffffffffffffffffffffffffffffff168273ffffffffffffffffffffffffffffffffffffffff16141561090d576040517f08c379a00000000000000000000000000000000000000000000000000000000081526004016109049061187d565b60405180910390fd5b600260008373ffffffffffffffffffffffffffffffffffffffff1673ffffffffffffffffffffffffffffffffffffffff168152602001908152602001600020549050919050565b60005b8181101561098b576109788360405180602001604052806000815250610b08565b80806109839061189d565b915050610957565b505050565b3373ffffffffffffffffffffffffffffffffffffffff168273ffffffffffffffffffffffffffffffffffffffff1614156109ff576040517f08c379a00000000000000000000000000000000000000000000000000000000081526004016109f690611958565b60405180910390fd5b80600460003373ffffffffffffffffffffffffffffffffffffffff1673ffffffffffffffffffffffffffffffffffffffff16815260200190815260200160002060008473ffffffffffffffffffffffffffffffffffffffff1673ffffffffffffffffffffffffffffffffffffffff16815260200190815260200160002060006101000a81548160ff0219169083151502179055508173ffffffffffffffffffffffffffffffffffffffff163373ffffffffffffffffffffffffffffffffffffffff167f17307eab39ab6107e8899845ad3d59bd9653f200f220920489ca2b5937696c3183604051610af09190611026565b60405180910390a35050565b50505050565b50505050565b610b1482600054610564565b610b2360008360005484610dee565b610b62576040517f08c379a0000000000000000000000000000000000000000000000000000000008152600401610b59906119ea565b60405180910390fd5b600080815480929190610b749061189d565b91905055505050565b6000600460008473ffffffffffffffffffffffffffffffffffffffff1673ffffffffffffffffffffffffffffffffffffffff16815260200190815260200160002060008373ffffffffffffffffffffffffffffffffffffffff1673ffffffffffffffffffffffffffffffffffffffff16815260200190815260200160002060009054906101000a900460ff16905092915050565b6000600260008373ffffffffffffffffffffffffffffffffffffffff1673ffffffffffffffffffffffffffffffffffffffff168152602001908152602001600020549050919050565b60007f01ffc9a7000000000000000000000000000000000000000000000000000000007bffffffffffffffffffffffffffffffffffffffffffffffffffffffff1916827bffffffffffffffffffffffffffffffffffffffffffffffffffffffff1916149050919050565b60008073ffffffffffffffffffffffffffffffffffffffff166001600084815260200190815260200160002060009054906101000a900473ffffffffffffffffffffffffffffffffffffffff1673ffffffffffffffffffffffffffffffffffffffff1614159050919050565b816003600083815260200190815260200160002060006101000a81548173ffffffffffffffffffffffffffffffffffffffff021916908373ffffffffffffffffffffffffffffffffffffffff160217905550808273ffffffffffffffffffffffffffffffffffffffff16610da383610732565b73ffffffffffffffffffffffffffffffffffffffff167f8c5be1e5ebec7d5bd14f71427d1e84f3dd0314c0f7b2291e5b200ac8c7c3b92560405160405180910390a45050565b505050565b6000610df984610f59565b15610f4c578373ffffffffffffffffffffffffffffffffffffffff1663150b7a02338786866040518563ffffffff1660e01b8152600401610e3d9493929190611a92565b6020604051808303816000875af1925050508015610e7957506040513d601f19601f82011682018060405250810190610e769190611af3565b60015b610efc573d8060008114610ea9576040519150601f19603f3d011682016040523d82523d6000602084013e610eae565b606091505b50600081511415610ef4576040517f08c379a0000000000000000000000000000000000000000000000000000000008152600401610eeb906119ea565b60405180910390fd5b805181602001fd5b63150b7a0260e01b7bffffffffffffffffffffffffffffffffffffffffffffffffffffffff1916817bffffffffffffffffffffffffffffffffffffffffffffffffffffffff191614915050610f51565b600190505b949350505050565b600080823b905060008163ffffffff1611915050919050565b6000604051905090565b600080fd5b600080fd5b60007fffffffff0000000000000000000000000000000000000000000000000000000082169050919050565b610fbb81610f86565b8114610fc657600080fd5b50565b600081359050610fd881610fb2565b92915050565b600060208284031215610ff457610ff3610f7c565b5b600061100284828501610fc9565b91505092915050565b60008115159050919050565b6110208161100b565b82525050565b600060208201905061103b6000830184611017565b92915050565b6000819050919050565b61105481611041565b811461105f57600080fd5b50565b6000813590506110718161104b565b92915050565b60006020828403121561108d5761108c610f7c565b5b600061109b84828501611062565b91505092915050565b600073ffffffffffffffffffffffffffffffffffffffff82169050919050565b60006110cf826110a4565b9050919050565b6110df816110c4565b82525050565b60006020820190506110fa60008301846110d6565b92915050565b611109816110c4565b811461111457600080fd5b50565b60008135905061112681611100565b92915050565b6000806040838503121561114357611142610f7c565b5b600061115185828601611117565b925050602061116285828601611062565b9150509250929050565b60008060006060848603121561118557611184610f7c565b5b600061119386828701611117565b93505060206111a486828701611117565b92505060406111b586828701611062565b9150509250925092565b6000602082840312156111d5576111d4610f7c565b5b60006111e384828501611117565b91505092915050565b6111f581611041565b82525050565b600060208201905061121060008301846111ec565b92915050565b61121f8161100b565b811461122a57600080fd5b50565b60008135905061123c81611216565b92915050565b6000806040838503121561125957611258610f7c565b5b600061126785828601611117565b92505060206112788582860161122d565b9150509250929050565b600080fd5b600080fd5b6000601f19601f8301169050919050565b7f4e487b7100000000000000000000000000000000000000000000000000000000600052604160045260246000fd5b6112d58261128c565b810181811067ffffffffffffffff821117156112f4576112f361129d565b5b80604052505050565b6000611307610f72565b905061131382826112cc565b919050565b600067ffffffffffffffff8211156113335761133261129d565b5b61133c8261128c565b9050602081019050919050565b82818337600083830152505050565b600061136b61136684611318565b6112fd565b90508281526020810184848401111561138757611386611287565b5b611392848285611349565b509392505050565b600082601f8301126113af576113ae611282565b5b81356113bf848260208601611358565b91505092915050565b600080600080608085870312156113e2576113e1610f7c565b5b60006113f087828801611117565b945050602061140187828801611117565b935050604061141287828801611062565b925050606085013567ffffffffffffffff81111561143357611432610f81565b5b61143f8782880161139a565b91505092959194509250565b6000806040838503121561146257611461610f7c565b5b600061147085828601611117565b925050602083013567ffffffffffffffff81111561149157611490610f81565b5b61149d8582860161139a565b9150509250929050565b600080604083850312156114be576114bd610f7c565b5b60006114cc85828601611117565b92505060206114dd85828601611117565b9150509250929050565b600082825260208201905092915050565b7f455243373231204552524f523a20746f6b656e496420646f6573206e6f74206560008201527f7869737400000000000000000000000000000000000000000000000000000000602082015250565b60006115546024836114e7565b915061155f826114f8565b604082019050919050565b6000602082019050818103600083015261158381611547565b9050919050565b7f455243373231204552524f523a2044657374696e6174696f6e2061646472657360008201527f73206d75737420626520646966666572656e7400000000000000000000000000602082015250565b60006115e66033836114e7565b91506115f18261158a565b604082019050919050565b60006020820190508181036000830152611615816115d9565b9050919050565b7f455243373231204552524f523a20596f7520617265206e6f7420746865206f7760008201527f6e6572206f7220796f7520646f206e6f2068617665207065726d697373696f6e60208201527f7300000000000000000000000000000000000000000000000000000000000000604082015250565b600061169e6041836114e7565b91506116a98261161c565b606082019050919050565b600060208201905081810360008301526116cd81611691565b9050919050565b7f4552524f523a206d696e7420746f20746865207a65726f206164647265737300600082015250565b600061170a601f836114e7565b9150611715826116d4565b602082019050919050565b60006020820190508181036000830152611739816116fd565b9050919050565b7f4552524f523a20746f6b656e20616c7265616479206d696e7465640000000000600082015250565b6000611776601b836114e7565b915061178182611740565b602082019050919050565b600060208201905081810360008301526117a581611769565b9050919050565b7f4e487b7100000000000000000000000000000000000000000000000000000000600052601160045260246000fd5b60006117e682611041565b91506117f183611041565b9250827fffffffffffffffffffffffffffffffffffffffffffffffffffffffffffffffff03821115611826576118256117ac565b5b828201905092915050565b7f4552433732313a207a65726f2061646472657373000000000000000000000000600082015250565b60006118676014836114e7565b915061187282611831565b602082019050919050565b600060208201905081810360008301526118968161185a565b9050919050565b60006118a882611041565b91507fffffffffffffffffffffffffffffffffffffffffffffffffffffffffffffffff8214156118db576118da6117ac565b5b600182019050919050565b7f454352373231204552524f523a206f70657261746f7220616464726573206d7560008201527f737420626520646966666572656e740000000000000000000000000000000000602082015250565b6000611942602f836114e7565b915061194d826118e6565b604082019050919050565b6000602082019050818103600083015261197181611935565b9050919050565b7f455243373231204552524f523a205472616e7366657220746f206e6f6e20455260008201527f43373231526563656976657220696d706c656e74657200000000000000000000602082015250565b60006119d46036836114e7565b91506119df82611978565b604082019050919050565b60006020820190508181036000830152611a03816119c7565b9050919050565b600081519050919050565b600082825260208201905092915050565b60005b83811015611a44578082015181840152602081019050611a29565b83811115611a53576000848401525b50505050565b6000611a6482611a0a565b611a6e8185611a15565b9350611a7e818560208601611a26565b611a878161128c565b840191505092915050565b6000608082019050611aa760008301876110d6565b611ab460208301866110d6565b611ac160408301856111ec565b8181036060830152611ad38184611a59565b905095945050505050565b600081519050611aed81610fb2565b92915050565b600060208284031215611b0957611b08610f7c565b5b6000611b1784828501611ade565b9150509291505056fea2646970667358221220a63596dc12adec73a8a94d87b24cc9b5db30b040e83eb06704276de3f6a1455564736f6c634300080b0033",
  "immutableReferences": {},
  "source": "// SPDX-License-Identifier: MIT\npragma solidity ^0.8.11;\n\n\nimport \"./ERC165.sol\";\nimport \"./interfaces/IERC721.sol\";\nimport \"./interfaces/IERC721TokenReceiver.sol\";\n\n\ncontract Plum is ERC165, IERC721{\n\n    uint nextId;\n\n    mapping(uint256 => address) private _owners;\n    mapping(address => uint256) private _balances;\n    mapping(uint256 => address) private _tokenApprovals;\n\n    mapping(address => mapping( address => bool)) private _operatorApprovals;\n\n\n    function supportsInterface(bytes4 interfaceId) public view virtual override(ERC165, IERC165) returns(bool){\n        return interfaceId == type(IERC721).interfaceId || super.supportsInterface(interfaceId);\n    }\n\n    function getMyPlums(address owner) public view returns (uint256) {\n      require (owner != address(0), \"ERC721: zero address\");\n      return _balances[owner];\n    }\n\n    function getAll(address owner) public view returns(uint256 tokens){        \n        return _balances[owner];\n    }\n    \n\n    function balanceOf(address owner) public view virtual override returns(uint256){\n\n        require (owner != address(0), \"ERC721: zero address\");\n        return _balances[owner];\n        \n    }\n\n    function ownerOf(uint256 tokenId) public view virtual override returns(address){\n        address owner = _owners[tokenId];\n\n        require (owner != address(0), \"ERC721: zero address\");\n        return owner;\n    }\n\n    function approve (address to, uint256 tokenId) public virtual override{\n        address owner = ownerOf(tokenId);\n\n        require (to != owner, \"ERC721 ERROR: Destination address must be different\");\n\n        require (msg.sender == owner || isApprovedForAll(owner, msg.sender), \"ERC721 ERROR: You are not the owner or you do no have permissions\");\n\n        _approve(to, tokenId);\n        \n        \n    }\n\n    function _approve(address to, uint256 tokenId) internal virtual{\n        _tokenApprovals[tokenId] = to;\n        emit Approval(ownerOf(tokenId), to, tokenId);\n    }\n\n    function getApproved(uint256 tokenId) public view virtual override returns(address){\n\n        require (_exists(tokenId), \"ERC721 ERROR: tokenId does not exist\");\n\n        return _tokenApprovals[tokenId];\n        \n    }\n\n    function setApprovalForAll(address operator, bool approved) public virtual override{\n\n        require (operator != msg.sender, \"ECR721 ERROR: operator addres must be different\");\n\n        _operatorApprovals[msg.sender][operator] = approved;\n        emit ApprovalForAll(msg.sender, operator, approved);\n        \n    }   \n\n    function isApprovedForAll(address owner, address operator) public view virtual override returns(bool){\n        return _operatorApprovals[owner][operator];\n    }\n\n\n    // ----------------------- //\n\n    function safeTransferFrom(address from, address to, uint256 tokenId) public virtual override{\n\n    }\n\n    function safeTransferFrom(address from, address to, uint256 tokenId, bytes memory _data) public virtual {\n  \n    }\n\n    function _safeTransfer(address from, address to, uint256 tokenId, bytes memory _data) internal virtual{\n\n        \n    }\n\n    function transferFrom(address from, address to, uint256 tokenId) public virtual override {\n\n        \n    }\n\n    function transferFrom(address from, address to, uint256 tokenId, bytes memory data) public virtual override {\n\n        \n    }\n\n    // ----------------------- //\n\n\n    function _transfer(address from, address to, uint256 tokenId) internal virtual{\n\n        require (ownerOf(tokenId) == from, \"ERC721 ERROR: Token id does not exist\");\n\n        require (to != address(0), \"ERC721 ERROR: transfer to zero address\");\n\n        _beforeTokenTransfer(from, to, tokenId);\n        _approve(address(0), tokenId);\n\n        _balances[from] -= 1;\n        _balances[to] += 1;\n        _owners[tokenId] = to;\n\n        emit Transfer(from, to, tokenId);\n        \n        \n    }\n\n\n\n    function safeMint(address to, uint num) public {        \n        for(uint256 i; i < num; i++){\n            _safeMint(to, \"\");\n        }\n                \n    }\n\n    function _safeMint(address to, bytes memory _data) public{\n        _mint(to, nextId);\n        require( _checkOnERC721Received( address(0), to, nextId, _data), \"ERC721 ERROR: Transfer to non ERC721Receiver implenter\" );   \n        nextId++;\n    }\n\n\n    function _mint(address to, uint256 tokenId) public virtual {\n        require(to != address(0), \"ERROR: mint to the zero address\");\n\n        require(!_exists(tokenId), \"ERROR: token already minted\");\n\n        _beforeTokenTransfer(address(0), to, tokenId);\n\n        _balances[to] += 1;\n        _owners[tokenId] = to;\n\n        emit Transfer(address(0), to, tokenId);\n        \n        \n    }\n\n\n    function _checkOnERC721Received(address from, address to, uint256 tokenId, bytes memory _data) private returns(bool) {\n        if(isContract(to)){\n                try IERC721TokenReceiver(to).onERC721Received(msg.sender, from, tokenId, _data) returns (bytes4 retval){\n                    return retval == IERC721TokenReceiver(to).onERC721Received.selector;\n                } catch (bytes memory reason){\n                    if(reason.length == 0){\n                        revert(\"ERC721 ERROR: Transfer to non ERC721Receiver implenter\");\n                    } else {\n                        assembly {\n                            revert(add(32, reason), mload(reason))\n                        }\n                    }\n                }\n            }else{\n                return true;\n            }\n        \n    }\n\n    function isContract( address _addr ) private view returns(bool) {\n        uint32 size;\n        assembly {\n            size := extcodesize(_addr)\n        }\n        return(size > 0);\n        \n    }\n\n\n    function _exists(uint256 tokenId) internal view virtual returns(bool) {\n        return _owners[tokenId] != address(0);        \n    }\n    \n\n    function _beforeTokenTransfer(address from, address to, uint256 tokenId) internal virtual {\n           \n    }\n\n\n    function _isApprovedOrOwner(address spender, uint256 tokenId) internal view virtual returns(bool){\n\n        require (_exists(tokenId),\"ERC721 ERROR: token id does not exist\");\n        address owner = ownerOf(tokenId);\n        return(spender== owner || getApproved(tokenId) == spender || isApprovedForAll(owner,spender));\n        \n    }\n\n\n  \n}",
  "sourcePath": "/Users/mac/Documents/facu 2023/seguridad 2/encuestas/contracts/Plum.sol",
  "compiler": {
    "name": "solc",
    "version": "0.8.11+commit.d7f03943.Emscripten.clang"
  },
  "schemaVersion": "3.4.16",
  "updatedAt": "2024-02-28T20:27:05.985Z",
  "devdoc": {
    "kind": "dev",
    "methods": {},
    "version": 1
  },
  "userdoc": {
    "kind": "user",
    "methods": {},
    "version": 1
  }
}