{
  "contractName": "Survey",
  "abi": [
    {
      "inputs": [
        {
          "internalType": "uint256",
          "name": "",
          "type": "uint256"
        }
      ],
      "name": "surveys",
      "outputs": [
        {
          "internalType": "string",
          "name": "title",
          "type": "string"
        },
        {
          "internalType": "string",
          "name": "question",
          "type": "string"
        }
      ],
      "stateMutability": "view",
      "type": "function"
    },
    {
      "inputs": [
        {
          "internalType": "string",
          "name": "title",
          "type": "string"
        },
        {
          "internalType": "string",
          "name": "question",
          "type": "string"
        }
      ],
      "name": "addSurvey",
      "outputs": [],
      "stateMutability": "nonpayable",
      "type": "function"
    },
    {
      "inputs": [],
      "name": "getSurvey",
      "outputs": [
        {
          "internalType": "uint256",
          "name": "",
          "type": "uint256"
        }
      ],
      "stateMutability": "view",
      "type": "function"
    }
  ],
  "bytecode": "0x608060405234801561001057600080fd5b506106d9806100206000396000f3fe608060405234801561001057600080fd5b50600436106100415760003560e01c806330b23bfc146100465780634a44e0e91461006257806386e68b9014610080575b600080fd5b610060600480360381019061005b919061047e565b6100b1565b005b61006a610131565b604051610077919061050f565b60405180910390f35b61009a60048036038101906100959190610556565b61013d565b6040516100a892919061060b565b60405180910390f35b60006040518060400160405280848152602001838152509080600181540180825580915050600190039060005260206000209060020201600090919091909150600082015181600001908051906020019061010d929190610281565b50602082015181600101908051906020019061012a929190610281565b5050505050565b60008080549050905090565b6000818154811061014d57600080fd5b906000526020600020906002020160009150905080600001805461017090610671565b80601f016020809104026020016040519081016040528092919081815260200182805461019c90610671565b80156101e95780601f106101be576101008083540402835291602001916101e9565b820191906000526020600020905b8154815290600101906020018083116101cc57829003601f168201915b5050505050908060010180546101fe90610671565b80601f016020809104026020016040519081016040528092919081815260200182805461022a90610671565b80156102775780601f1061024c57610100808354040283529160200191610277565b820191906000526020600020905b81548152906001019060200180831161025a57829003601f168201915b5050505050905082565b82805461028d90610671565b90600052602060002090601f0160209004810192826102af57600085556102f6565b82601f106102c857805160ff19168380011785556102f6565b828001600101855582156102f6579182015b828111156102f55782518255916020019190600101906102da565b5b5090506103039190610307565b5090565b5b80821115610320576000816000905550600101610308565b5090565b6000604051905090565b600080fd5b600080fd5b600080fd5b600080fd5b6000601f19601f8301169050919050565b7f4e487b7100000000000000000000000000000000000000000000000000000000600052604160045260246000fd5b61038b82610342565b810181811067ffffffffffffffff821117156103aa576103a9610353565b5b80604052505050565b60006103bd610324565b90506103c98282610382565b919050565b600067ffffffffffffffff8211156103e9576103e8610353565b5b6103f282610342565b9050602081019050919050565b82818337600083830152505050565b600061042161041c846103ce565b6103b3565b90508281526020810184848401111561043d5761043c61033d565b5b6104488482856103ff565b509392505050565b600082601f83011261046557610464610338565b5b813561047584826020860161040e565b91505092915050565b600080604083850312156104955761049461032e565b5b600083013567ffffffffffffffff8111156104b3576104b2610333565b5b6104bf85828601610450565b925050602083013567ffffffffffffffff8111156104e0576104df610333565b5b6104ec85828601610450565b9150509250929050565b6000819050919050565b610509816104f6565b82525050565b60006020820190506105246000830184610500565b92915050565b610533816104f6565b811461053e57600080fd5b50565b6000813590506105508161052a565b92915050565b60006020828403121561056c5761056b61032e565b5b600061057a84828501610541565b91505092915050565b600081519050919050565b600082825260208201905092915050565b60005b838110156105bd5780820151818401526020810190506105a2565b838111156105cc576000848401525b50505050565b60006105dd82610583565b6105e7818561058e565b93506105f781856020860161059f565b61060081610342565b840191505092915050565b6000604082019050818103600083015261062581856105d2565b9050818103602083015261063981846105d2565b90509392505050565b7f4e487b7100000000000000000000000000000000000000000000000000000000600052602260045260246000fd5b6000600282049050600182168061068957607f821691505b6020821081141561069d5761069c610642565b5b5091905056fea26469706673582212201ef32228ec6c490ffbe138b2d6bc0ecb3dc56b83bedd7da25160980e58504a7b64736f6c634300080b0033",
  "immutableReferences": {},
  "source": "// SPDX-License-Identifier: MIT\n\npragma solidity >=0.4.22 <0.9.0;\n\ncontract Survey{\n\n    struct SurveyData{\n        string title;\n        string question;\n    }\n\n    SurveyData[] public surveys;\n\n  function addSurvey(string memory title, string memory question) public {\n      surveys.push(SurveyData(title,question));\n  }\n\n  // function updateTech(uint techIndex, string memory newTechName) public returns (bool) {\n  //     if(myTechs.length > techIndex){\n  //         myTechs[techIndex] = newTechName;\n  //         return true;\n  //     }\n  //     return false;\n  // }\n\n  // function deleteTech(uint techIndex) public returns (bool) {\n  //     if(myTechs.length > techIndex){\n  //         for(uint i=techIndex; i < myTechs.length-1; i++){\n  //             myTechs[i] = myTechs[i+1];\n  //         }\n\n  //         myTechs.pop();\n  //         return true;\n  //     }\n  //     return false;\n  // }\n\n  function getSurvey() public view returns (uint256) {\n      return surveys.length;\n  }\n}",
  "sourcePath": "/Users/mac/Documents/facu 2023/seguridad 2/encuestas/contracts/Survey.sol",
  "compiler": {
    "name": "solc",
    "version": "0.8.11+commit.d7f03943.Emscripten.clang"
  },
  "schemaVersion": "3.4.16",
  "updatedAt": "2024-02-28T20:27:05.995Z",
  "devdoc": {
    "kind": "dev",
    "methods": {},
    "version": 1
  },
  "userdoc": {
    "kind": "user",
    "methods": {},
    "version": 1
  }
}