{
  "contractName": "Techs",
  "abi": [
    {
      "inputs": [
        {
          "internalType": "string",
          "name": "techName",
          "type": "string"
        }
      ],
      "name": "addTech",
      "outputs": [],
      "stateMutability": "nonpayable",
      "type": "function"
    },
    {
      "inputs": [
        {
          "internalType": "uint256",
          "name": "techIndex",
          "type": "uint256"
        },
        {
          "internalType": "string",
          "name": "newTechName",
          "type": "string"
        }
      ],
      "name": "updateTech",
      "outputs": [
        {
          "internalType": "bool",
          "name": "",
          "type": "bool"
        }
      ],
      "stateMutability": "nonpayable",
      "type": "function"
    },
    {
      "inputs": [
        {
          "internalType": "uint256",
          "name": "techIndex",
          "type": "uint256"
        }
      ],
      "name": "deleteTech",
      "outputs": [
        {
          "internalType": "bool",
          "name": "",
          "type": "bool"
        }
      ],
      "stateMutability": "nonpayable",
      "type": "function"
    },
    {
      "inputs": [],
      "name": "getTechs",
      "outputs": [
        {
          "internalType": "string[]",
          "name": "",
          "type": "string[]"
        }
      ],
      "stateMutability": "view",
      "type": "function"
    }
  ],
  "bytecode": "0x608060405234801561001057600080fd5b50610aa9806100206000396000f3fe608060405234801561001057600080fd5b506004361061004c5760003560e01c806301c752be146100515780630c36ce15146100815780632748b5ac1461009f57806373a029ad146100cf575b600080fd5b61006b6004803603810190610066919061063e565b6100eb565b60405161007891906106b5565b60405180910390f35b610089610141565b604051610096919061081a565b60405180910390f35b6100b960048036038101906100b4919061083c565b61021a565b6040516100c691906106b5565b60405180910390f35b6100e960048036038101906100e49190610869565b6102ff565b005b600082600080549050111561013657816000848154811061010f5761010e6108b2565b5b90600052602060002001908051906020019061012c92919061033e565b506001905061013b565b600090505b92915050565b60606000805480602002602001604051908101604052809291908181526020016000905b8282101561021157838290600052602060002001805461018490610910565b80601f01602080910402602001604051908101604052809291908181526020018280546101b090610910565b80156101fd5780601f106101d2576101008083540402835291602001916101fd565b820191906000526020600020905b8154815290600101906020018083116101e057829003601f168201915b505050505081526020019060010190610165565b50505050905090565b60008160008054905011156102f55760008290505b60016000805490506102419190610971565b8110156102bb57600060018261025791906109a5565b81548110610268576102676108b2565b5b9060005260206000200160008281548110610286576102856108b2565b5b9060005260206000200190805461029c90610910565b6102a79291906103c4565b5080806102b3906109fb565b91505061022f565b5060008054806102ce576102cd610a44565b5b6001900381819060005260206000200160006102ea9190610451565b9055600190506102fa565b600090505b919050565b60008190806001815401808255809150506001900390600052602060002001600090919091909150908051906020019061033a92919061033e565b5050565b82805461034a90610910565b90600052602060002090601f01602090048101928261036c57600085556103b3565b82601f1061038557805160ff19168380011785556103b3565b828001600101855582156103b3579182015b828111156103b2578251825591602001919060010190610397565b5b5090506103c09190610491565b5090565b8280546103d090610910565b90600052602060002090601f0160209004810192826103f25760008555610440565b82601f106104035780548555610440565b8280016001018555821561044057600052602060002091601f016020900482015b8281111561043f578254825591600101919060010190610424565b5b50905061044d9190610491565b5090565b50805461045d90610910565b6000825580601f1061046f575061048e565b601f01602090049060005260206000209081019061048d9190610491565b5b50565b5b808211156104aa576000816000905550600101610492565b5090565b6000604051905090565b600080fd5b600080fd5b6000819050919050565b6104d5816104c2565b81146104e057600080fd5b50565b6000813590506104f2816104cc565b92915050565b600080fd5b600080fd5b6000601f19601f8301169050919050565b7f4e487b7100000000000000000000000000000000000000000000000000000000600052604160045260246000fd5b61054b82610502565b810181811067ffffffffffffffff8211171561056a57610569610513565b5b80604052505050565b600061057d6104ae565b90506105898282610542565b919050565b600067ffffffffffffffff8211156105a9576105a8610513565b5b6105b282610502565b9050602081019050919050565b82818337600083830152505050565b60006105e16105dc8461058e565b610573565b9050828152602081018484840111156105fd576105fc6104fd565b5b6106088482856105bf565b509392505050565b600082601f830112610625576106246104f8565b5b81356106358482602086016105ce565b91505092915050565b60008060408385031215610655576106546104b8565b5b6000610663858286016104e3565b925050602083013567ffffffffffffffff811115610684576106836104bd565b5b61069085828601610610565b9150509250929050565b60008115159050919050565b6106af8161069a565b82525050565b60006020820190506106ca60008301846106a6565b92915050565b600081519050919050565b600082825260208201905092915050565b6000819050602082019050919050565b600081519050919050565b600082825260208201905092915050565b60005b8381101561073657808201518184015260208101905061071b565b83811115610745576000848401525b50505050565b6000610756826106fc565b6107608185610707565b9350610770818560208601610718565b61077981610502565b840191505092915050565b6000610790838361074b565b905092915050565b6000602082019050919050565b60006107b0826106d0565b6107ba81856106db565b9350836020820285016107cc856106ec565b8060005b8581101561080857848403895281516107e98582610784565b94506107f483610798565b925060208a019950506001810190506107d0565b50829750879550505050505092915050565b6000602082019050818103600083015261083481846107a5565b905092915050565b600060208284031215610852576108516104b8565b5b6000610860848285016104e3565b91505092915050565b60006020828403121561087f5761087e6104b8565b5b600082013567ffffffffffffffff81111561089d5761089c6104bd565b5b6108a984828501610610565b91505092915050565b7f4e487b7100000000000000000000000000000000000000000000000000000000600052603260045260246000fd5b7f4e487b7100000000000000000000000000000000000000000000000000000000600052602260045260246000fd5b6000600282049050600182168061092857607f821691505b6020821081141561093c5761093b6108e1565b5b50919050565b7f4e487b7100000000000000000000000000000000000000000000000000000000600052601160045260246000fd5b600061097c826104c2565b9150610987836104c2565b92508282101561099a57610999610942565b5b828203905092915050565b60006109b0826104c2565b91506109bb836104c2565b9250827fffffffffffffffffffffffffffffffffffffffffffffffffffffffffffffffff038211156109f0576109ef610942565b5b828201905092915050565b6000610a06826104c2565b91507fffffffffffffffffffffffffffffffffffffffffffffffffffffffffffffffff821415610a3957610a38610942565b5b600182019050919050565b7f4e487b7100000000000000000000000000000000000000000000000000000000600052603160045260246000fdfea2646970667358221220e47813a4a870f08026726f9c1290180950fc1e4388570517fc2c6a5448eadcf864736f6c634300080b0033",
  "immutableReferences": {},
  "source": "// SPDX-License-Identifier: MIT\n\npragma solidity >=0.4.22 <0.9.0;\n\ncontract Techs{\n    string [] myTechs;\n\n  function addTech(string memory techName) public {\n      myTechs.push(techName);\n  }\n\n  function updateTech(uint techIndex, string memory newTechName) public returns (bool) {\n      if(myTechs.length > techIndex){\n          myTechs[techIndex] = newTechName;\n          return true;\n      }\n      return false;\n  }\n\n  function deleteTech(uint techIndex) public returns (bool) {\n      if(myTechs.length > techIndex){\n          for(uint i=techIndex; i < myTechs.length-1; i++){\n              myTechs[i] = myTechs[i+1];\n          }\n\n          myTechs.pop();\n          return true;\n      }\n      return false;\n  }\n\n  function getTechs() public view returns (string[] memory) {\n      return myTechs;\n  }\n}",
  "sourcePath": "/Users/mac/Documents/facu 2023/seguridad 2/encuestas/contracts/Techs.sol",
  "compiler": {
    "name": "solc",
    "version": "0.8.11+commit.d7f03943.Emscripten.clang"
  },
  "schemaVersion": "3.4.16",
  "updatedAt": "2024-02-28T20:27:05.998Z",
  "devdoc": {
    "kind": "dev",
    "methods": {},
    "version": 1
  },
  "userdoc": {
    "kind": "user",
    "methods": {},
    "version": 1
  }
}